:020000040800F2
:10000000E01D002091010008B51100082911000829
:10001000B111000805080008F92E000800000000D2
:100020000000000000000000000000002127000880
:100030000D100008000000001F020008352800080D
:10004000AB010008AB010008AB010008AB010008E0
:10005000AB010008AB010008AB010008AB010008D0
:10006000AB010008AB010008AB010008AB010008C0
:10007000AB010008AB010008AB010008AB010008B0
:10008000AB010008AB010008AB010008AB010008A0
:10009000C52E0008AB010008AB010008AB01000849
:1000A000AB010008AB010008AB010008AB01000880
:1000B000AB010008AB010008B1280008AB01000843
:1000C000AB010008AB010008AB010008AB01000860
:1000D000AB010008A52A0008352B0008AB01000879
:1000E000AB010008AB010008AB01000800F002F80A
:1000F00000F03FF80AA090E8000C82448344AAF183
:100100000107DA4501D100F034F8AFF2090EBAE880
:100110000F0013F0010F18BFFB1A43F0010318473B
:100120000C3600002C360000103A24BF78C878C185
:10013000FAD8520724BF30C830C144BF04680C60ED
:10014000704700000023002400250026103A28BF35
:1001500078C1FBD8520728BF30C148BF0B60704739
:10016000782900F0F080002070471FB51FBD10B542
:1001700010BD00F017FB1146FFF7F7FF03F08CF8F6
:1001800000F035FB03B4FFF7F2FF03BC02F0BDFE45
:100190000948804709480047FEE7FEE7FEE7FEE71B
:1001A000FEE7FEE7FEE7FEE7FEE7FEE70448054957
:1001B000054A064B7047000051280008ED00000872
:1001C000E0170020E01D0020E0190020E0190020C9
:1001D000EFF3108072B6704780F310887047204CA0
:1001E000204D25604FF0000484F309881E4C4FF029
:1001F000010525701D4C4FF08055256062B6FEE765
:1002000030B41A4C4FF08055256030BC704730B484
:10021000164C4FF08055256030BC704700BF72B659
:10022000EFF3098028B1203880E8F00F1049096801
:10023000086000B50F4880475DF804EB0E480F4991
:100240000A7802700A480E490A680260106890E84D
:10025000F00F203080F309884EF0040E62B670472C
:1002600020ED00E00000FFFF3A00002004ED00E078
:1002700040000020611900082F00002030000020FD
:1002800048000020704700000FB4044910B503AACD
:10029000029800F071FA10BC5DF814FB7C0000209D
:1002A00070B5044685690068C10601D5302600E0B6
:1002B0002026C00707D070BDD4E901213046904701
:1002C000206A401C20626D1EF6D570BD70B50446D4
:1002D00085690078C00707D170BDD4E901212020CD
:1002E0009047206A401C20626D1EF6D570BD00004C
:1002F000F0B40D460188090502D5214C7C4402E08A
:100300001F4C7C440E34002100F1240608E002F06A
:100310000F071209E75D42EA03721B097754491C73
:1003200052EA0307F3D102780023120704D5702D97
:1003300006D009B1022311342246F0BC00F0AAB95C
:1003400001231034F8E770B504460D4621461068C5
:10035000AFF30080024629462046BDE870400023E6
:10036000C6E7D21D22F00703D3E90023C0E70368E4
:10037000126843F0200303600823C3610023B7E73A
:10038000F03300002DE9F05F894604464FF0000A83
:10039000DFF874B1FB44C0F820A02046E16888472C
:1003A000002874D0252806D0D4E901219047206A7E
:1003B000401C2062F1E700265F462046E16888473E
:1003C0002028054607DB312D05D2781910F8200CBE
:1003D00008B10643F1E7B00701D526F00406C4F8DA
:1003E0001CA00027C4F818A02A2D09D0284602F026
:1003F00085FD38B304EB8708303DC8F8185019E084
:1004000059F8041B204604EB87029161E168884794
:10041000012F054618D1E069002820DA26F02006D1
:100420001DE0D8F8180000EB800005EB40003038E4
:10043000C8F818002046E1688847054602F05EFDCE
:100440000028EED1012F0AD02E2D08D12046E168D8
:1004500088477F1C0546022F46F02006C4DBA069B2
:10046000002803DA404246F00106A061F00701D0FF
:1004700026F010066C2D0BD0682D09D04C2D39D0EC
:100480006A2D35D0742D35D07A2D33D016E038E072
:10049000E1682F4620468847B842054609D16C2FAF
:1004A00026D04FF48060E168064320468847054621
:1004B00004E06C2F1AD04FF4807006430DB3A5F101
:1004C0004100192802D8203546F400664A462946DC
:1004D000204626604E46FFF743FE80B101280BD030
:1004E000F61D26F0070000F1080956E74020E4E772
:1004F0008020D8E70020D6E706F104094DE728461A
:1005000052E7206ABDE8F09F80330000032A40F2E2
:10051000308010F0030C00F0158011F8013BBCF1A5
:10052000020F624498BF11F801CB00F8013B38BFBD
:1005300011F8013BA2F1040298BF00F801CB38BFCB
:1005400000F8013B11F0030300F02580083AC0F0E9
:10055000088051F8043B083A51F804CBA0E8081091
:10056000F5E7121D5CBF51F8043B40F8043BAFF3C4
:100570000080D20724BF11F8013B11F801CB48BF1E
:1005800011F8012B24BF00F8013B00F801CB48BF54
:1005900000F8012B704710B5203AC0F00B80B1E88D
:1005A0001850203AA0E81850B1E81850A0E81850A8
:1005B000BFF4F5AF5FEA027C24BFB1E81850A0E8B1
:1005C000185044BF18C918C0BDE810405FEA827CCB
:1005D00024BF51F8043B40F8043B08BF7047D207E2
:1005E00028BF31F8023B48BF11F8012B28BF20F883
:1005F000023B48BF00F8012B70474FF0000204296E
:10060000C0F0128010F0030C00F01B80CCF1040C41
:10061000BCF1020F18BF00F8012BA8BF20F8022B75
:10062000A1EB0C0100F00DB85FEAC17C24BF00F81B
:10063000012B00F8012B48BF00F8012B70474FF049
:10064000000200B5134694469646203922BFA0E822
:100650000C50A0E80C50B1F12001BFF4F7AF09072E
:1006600028BFA0E80C5048BF0CC05DF804EB89001F
:1006700028BF40F8042B08BF704748BF20F8022B62
:1006800011F0804F18BF00F8012B7047704770477A
:10069000704770472DE9F0470D469946924604464B
:1006A00000F124080168880604D5E06921F01001F2
:1006B000216000E00120A84201DD471B00E0002787
:1006C000A1697A1902EB0900081AA0612078C00616
:1006D00002D42046FFF7E4FD002608E0D4E901211A
:1006E0001AF806009047206A401C761C20624E458E
:1006F000F4DB2078C0060AD52046FFF7D1FD06E0DE
:10070000D4E9012130209047206A401C2062381E25
:10071000A7F10107F4DC07E0D4E9012118F805008E
:100720009047206A401C2062281EA5F10105F3DCD9
:100730002046FFF7CBFD2078000602D50220BDE859
:10074000F0870120FBE7000001694A1C026108787C
:10075000704700B58FB0CDE9013100210591054901
:100760007944CDE9031011466846FFF70BFE0FB040
:1007700000BD0000E5FFFFFF074B70B50D467B4451
:10078000FFF7E7FF0446284600F008F810B14FF0E5
:10079000FF3070BD204670BDEF2A0000007B00F0E6
:1007A00080007047754600F029F8AE46050069469E
:1007B000534620F00700854618B020B5FFF7F6FC39
:1007C000BDE820404FF000064FF000074FF0000852
:1007D0004FF0000B21F00701AC46ACE8C009ACE8D3
:1007E000C009ACE8C009ACE8C0098D4670470446B2
:1007F000AFF300802046FFF7C5FC000000487047BB
:100800007C17002000BFFEE710B504460B48844269
:1008100009D10121480601F0E9FE00214FF00070E6
:1008200001F0E4FE08E00121880601F0DFFE00216E
:100830004FF0806001F0DAFE10BD0000006400405F
:100840002DE9FF4105468846002400BF5CE004EB2B
:10085000440055F8200004EB440105EB8101896850
:10086000C1F1200100FA01F604EB440005EB800021
:10087000406804EB440105EB81018968C1F1200166
:1008800000FA01F7E0B28DF80A0000208DF80B00A5
:1008900001208DF80C004FF6FF7000EA1640ADF80D
:1008A000000004EB440005EB800080681D2805D1A2
:1008B000B0B240F00400ADF8020002E0B0B2ADF812
:1008C00002004FF6FF7000EA1740ADF80400B8B21E
:1008D00040F00600ADF806000020ADF80800012049
:1008E0008DF80D00684600F031F8BDF80220BDF823
:1008F000001007A0FFF7C8FCBDF80620BDF80410E3
:100900000AA0FFF7C1FC641C4445A0DBBDE8FF81E1
:1009100069646820093D30782534782069646C204A
:10092000093D203078253034780D0A0069644D681F
:1009300020093D30782534782069644D6C203D20B5
:100940003078253034780D0A0000000010B5002101
:10095000837A012202FA03F13D4A126842F0010251
:100960003B4B1A603A4A1C3212688A43384B1C339C
:100970001A60027BCAB9364A0C3212688A43344B79
:100980000C331A604288C38842EA0343304A40323B
:10099000847A42F834300288838842EA03432C4A3E
:1009A0004032847A02EBC4025360027B012A19D1DF
:1009B000274A0C3212680A43254B0C331A604288CE
:1009C000038842EA0343224A4032847A42F83430B0
:1009D000C288838842EA03431D4A4032847A02EB8C
:1009E000C4025360C27A3AB9194A121D12688A4386
:1009F000174B1B1D1A6006E0154A121D12680A43A8
:100A0000134B1B1D1A60028932B9114A1432126845
:100A10008A430F4B14331A600289012A06D10C4A0B
:100A2000143212680A430A4B14331A60427B012ABB
:100A300006D1074A1C3212680A43054B1C331A6060
:100A4000034A126822F00102014B1A6010BD000037
:100A50000066004008B50121052001F0D7FD012105
:100A6000480601F0B3FD4FF40060ADF800004820E7
:100A70008DF803006946094800F0C9FA4FF4805028
:100A8000ADF8000018208DF8030003208DF8020057
:100A90006946024800F0BBFA08BD000000080140AA
:100AA0003EB504461448FFF7AFFE684600F046F92D
:100AB00000208DF806008DF807008DF808008DF8ED
:100AC00009008DF80A008DF80B008DF802008DF8F2
:100AD000030002208DF8040001208DF80500A0B26B
:100AE000ADF800006946044800F011F80122022127
:100AF000014800F003F83EBD006400401AB14369AC
:100B00000B43436102E043698B434361704730B557
:100B1000024600200023146824F0020414601468C4
:100B200044F00104146000E05B1C546804F001040C
:100B30001CB94FF6FF74A342F6D1546804F00104C7
:100B40000CB900206CE08C79012C04D1146844F0BD
:100B50008004146003E0146824F080041460CC79ED
:100B6000012C04D1146844F04004146003E01468BC
:100B700024F0400414600C7A012C04D1146844F071
:100B80002004146003E0146824F0200414604C7AFC
:100B9000012C04D1146844F01004146003E01468BC
:100BA00024F0100414608C7A012C04D1146844F0F1
:100BB0000804146003E0146824F008041460CC7A7C
:100BC000012C04D1146844F00404146003E0146898
:100BD00024F0040414608C78A407CD7844EA0564FA
:100BE0000D7944EA05444D7944EA05540D886D1E9B
:100BF0002C43D461146824F001041460002300E045
:100C00005B1C546804F001041CB14FF6FF74A3424E
:100C1000F6D1546804F001040CB1002000E001207A
:100C200030BD08B500214FF0006000F007FB142034
:100C30008DF8000000208DF801008DF802000120E1
:100C40008DF80300684600F0B7FA08BD10B500F54E
:100C5000D87303EB01131B6803F004031372137AB8
:100C600053B900F5D87303EB01131B6840F2FF740E
:100C700004EA5353136009E000F5D87303EB011342
:100C80001B686FF0604404EAD303536000F5D87327
:100C900003EB01131B6803F00203537200F5D873D2
:100CA00003EB01135B6803F00F03937200F5D87335
:100CB00003EB01135B681B0AD37400F5D87303EBD5
:100CC00001139B68D37200F5D87303EB01139B6883
:100CD0001C0A147300F5D87303EB01139B681C0CFA
:100CE000547300F5D87303EB01139B681B0E9373C9
:100CF00000F5D87303EB0113DB68D37300F5D873E9
:100D000003EB0113DB681C0A147400F5D87303EBC2
:100D10000113DB681C0C547400F5D87303EB01134A
:100D2000DB681B0E937421B9C36843F02003C360D2
:100D300003E0036943F02003036110BD00218171CA
:100D4000C171017241728172C1728170C1700321DF
:100D500001710221417101210180704710B50246E5
:100D60000020936803F08063B3F1806F00D110E03E
:100D7000936803F00063B3F1006F01D1012008E034
:100D8000936803F08053B3F1805F01D1022000E04B
:100D90000420042874D002F5C07303EB00131B6811
:100DA00003F0010402F5C07303EB00131C600B7A1F
:100DB0007BB94B7A0C8843EA445302F5C07404EBC8
:100DC00000142468234302F5C07404EB001423606C
:100DD00010E00B7A4C6843EAC4034C7A234302F5D3
:100DE000C07404EB00142468234302F5C07404EBC0
:100DF000001423608B7A03F00F038B7202F5C0732B
:100E000003EB00135B6823F00F0402F5C07303EBE0
:100E100000135C6002F5C07303EB00135B688C7A0F
:100E2000234302F5C07404EB001463608B7B1C0643
:100E30004B7B44EA03440B7B44EA0323CC7A2343F1
:100E400002F5C07404EB0014A3608B7C1C064B7C81
:100E500044EA03440B7C44EA0323CC7B234302F59E
:100E6000C07404EB0014E36002F5C07303EB0013DD
:100E70001B6843F0010402F5C07303EB00131C6010
:100E800010BD000001684FF6FE72114001600021A4
:100E9000016041608160C1604B49884208D14A4984
:100EA0000839496841F00F01474A083A51608AE021
:100EB00045491431884208D143490839496841F00D
:100EC000F001414A083A51607DE03F4928318842AB
:100ED00008D13D490839496841F470613A4A083AF5
:100EE000516070E038493C31884208D136490839B0
:100EF000496841F47041344A083A516063E032492C
:100F00005031884208D130490839496841F470218C
:100F10002D4A083A516056E02B496431884208D185
:100F200029490839496841F47001274A083A516053
:100F300049E025497831884208D123490839496870
:100F400041F07061204A083A51603CE01F498842F4
:100F500006D1011F096841F00F01021F116032E044
:100F60001A491431884208D11849091F096841F00B
:100F7000F001164A121F116025E0144928318842F9
:100F800008D11249091F096841F470610F4A121F04
:100F9000116018E00D493C31884208D10B49091F06
:100FA000096841F47041094A121F11600BE00749BA
:100FB0005031884207D10549091F096841F4702161
:100FC000024A121F116070470800024008040240E4
:100FD00010B50022026847F6F0739A430C6A8B68DA
:100FE00023430C6923434C6923438C692343CC6915
:100FF00023434C6A23438C6A23431A430260CB6821
:1010000043600B6883604B68C36010BD70472DE977
:10101000F04102460025002600200023002400277E
:1010200091F803C00CF00F0591F803C00CF0100C00
:10103000BCF1000F03D091F802C04CEA050591F80D
:1010400000C0BCF1000F31D0146800202BE04FF03D
:10105000010C0CFA00F3B1F800C00CEA03069E4242
:1010600020D183004FF00F0C0CFA03F7BC4305FAB4
:1010700003FC4CEA040491F803C0BCF1280F06D12C
:101080004FF0010C0CFA00FCC2F814C00AE091F811
:1010900003C0BCF1480F05D14FF0010C0CFA00FC65
:1010A000C2F810C0401C0828D1D31460B1F800C0A9
:1010B000BCF1FF0F34DD546800202EE000F1080C75
:1010C0004FF0010808FA0CF3B1F800C00CEA03066F
:1010D0009E4221D183004FF00F0C0CFA03F7BC4362
:1010E00005FA03FC4CEA040491F803C0BCF1280F94
:1010F00005D100F1080C08FA0CF8C2F8148091F838
:1011000003C0BCF1480F07D100F1080C4FF00108F3
:1011100008FA0CF8C2F81080401C0828CED354609E
:10112000BDE8F0810161704700BFFEE708B501210D
:10113000242001F06BFA0121102001F067FA4FF42E
:101140000050ADF8000010208DF8030003208DF84A
:10115000020069461348FFF75AFF4FF40051114847
:10116000FFF7E0FF4FF48070ADF8000010208DF81D
:10117000030003208DF8020069460B48FFF747FF84
:101180004FF480710848FFF7CDFF0420ADF8000050
:1011900069460648FFF73BFF04210448FFF7C2FFFA
:1011A00008BD00000010014000080140001401408B
:1011B00000BFFEE77047000070B5002100230F223A
:1011C000C47804B3154C246804F4E064C4F5E06406
:1011D000210AC1F10403CA40447804FA03F1847877
:1011E0001440214309010E4C0678A155047804F0FF
:1011F0001F050124AC4005786D11AD0005F1E02517
:10120000C5F8004109E0047804F01F050124AC4052
:10121000044D0678761145F8264070BD0CED00E0CF
:1012200000E400E080E100E002490143024A11606D
:10123000704700000000FA050CED00E0024A0A4089
:101240000243024B1A60704780FFFF1F08ED00E069
:1012500010B500F015F800F02DFF00F055FF00F07C
:1012600075FF00F0FDFE00F0CFFE01F009F800F080
:10127000ADFF00F0D3FF00F007FD00F007F810BD50
:10128000002001490880704774000020704700006A
:1012900006480078012808D105480078FF2804D2C4
:1012A00003480078401C0249087070473A0000204B
:1012B0002D00002010B500241A480078012830D1F4
:1012C000FEF786FF04461848007820B116480078DB
:1012D000401E1549087014480078F8B91348007882
:1012E000E0B901F02FF812481249097850F82100AE
:1012F000114908600F4800781049097888420DD0DC
:101300000D480068806B401C0B49096888630C48D5
:101310000068401C0A490860FEF779FF2046FEF786
:101320005BFF10BD3A0000202D0000202E000020A1
:10133000E805002030000020480000202F00002099
:101340001400002010B500240B480078012811D1AA
:10135000FEF73EFF04460948007840B90848007887
:10136000FF2804D206480078401C05490870204632
:10137000FEF732FF10BD00003A0000202D000020D3
:101380002E00002010B5002413480078012821D138
:10139000FEF71EFF044611480078C0B10F480078E0
:1013A000401E0E4908700846007860B90C48007865
:1013B00028B92046FEF710FF00F08AFF0AE0204619
:1013C000FEF70AFF06E02046FEF706FF02E0204691
:1013D000FEF702FF10BD00003A0000202E000020A2
:1013E0002D00002070B5054600260F48007808B192
:1013F000002070BDFEF7ECFE06460C48046800684D
:1014000020B10A4800684068084908603046FEF785
:10141000E3FE3CB10320207025810020606020465F
:1014200000F0E4FD2046E4E72D0000201800002035
:101430002DE9F04105460E4614460027287803287A
:1014400003D001202070BDE8F0813148007810B150
:1014500002202070F7E72F48007810B10D2020708F
:10146000F1E7FEF7B5FE0746288940B12889401EFE
:1014700028813846FEF7B0FE00202070E3E72648BA
:10148000006890F8300040F001002349096881F8B5
:10149000300000202049096881F831001E480068AA
:1014A000C662284600F064FD3846FEF795FE00F05F
:1014B0000FFFFEF78DFE07461748006890F83100D1
:1014C00020B1012809D0022806D102E000202070B6
:1014D0000BE00E20207008E000BF29460E4800688F
:1014E00000F030FD0A20207000BF00BF00200A4934
:1014F000096881F830000849096881F83100064917
:101500000968C8613846FEF767FE00BF9BE7000028
:101510002D0000202E0000204000002070B5044661
:1015200000252078032801D0012070BDFEF750FE71
:101530000546A07A60B1002301221946204600F03A
:10154000BFFC2846FEF748FE00F0C2FE0020ECE794
:1015500020894FF6FF71884207D22089401C2081E4
:101560002846FEF739FE0020DFE72846FEF734FE66
:101570003320DAE710B50B48007890B900F0E2FEAE
:10158000094800780949087009480749097850F85E
:101590002100084908600846006807490860FEF70E
:1015A0001EFE10BD3A000020300000202F00002059
:1015B000E80500204800002040000020704700009F
:1015C0002DE9FE4F06460F4690461C464FF0000997
:1015D000FEF7FEFD81461F48007828B14846FEF719
:1015E000FBFD3C20BDE8FE8F1B4850F8240060BB8B
:1015F0000120194941F824004846FEF7EDFD00237B
:1016000042463946304600F009F9824600200090F3
:1016100001900346024651460290204600F0A8FE83
:10162000054635B90D48007801280CD100F050FE70
:1016300009E0FEF7CDFD81460020074941F824006E
:101640004846FEF7C9FD2846CCE74846FEF7C4FDEC
:101650002820C7E72D000020E80500203A000020E0
:101660002DE9F04F85B081468A4693461C46DDE958
:101670000F78129D00200390FEF7AAFD03902348E7
:10168000007830B10398FEF7A7FD3C2005B0BDE817
:10169000F08F1F4850F8240088BB01201C4941F8F6
:1016A00024000398FEF798FD2A464146384600F08C
:1016B0006FFF2B465A465146484600F0AFF804905B
:1016C0001198CDE9008002953A4620460E9B049978
:1016D00000F04EFE064636B90E48007801280CD1BF
:1016E00000F0F6FD09E0FEF773FD039000200849C5
:1016F00041F824000398FEF76FFD3046C6E7FFE788
:101700000398FEF769FD2820C0E700002D000020A7
:10171000E80500203A000020704770472DE9F041AD
:1017200006460F4614464FF000081548007818B1D9
:1017300012202070BDE8F081FEF74AFD8046FF2EA2
:1017400003D11048006890F832600F4850F82650D6
:101750002DB94046FEF740FD43202070EAE7012DF9
:1017600005D14046FEF738FD43202070E2E7EF64E4
:101770004046FEF731FD0020207000BFDAE7000090
:101780002D00002040000020E805002070470000E8
:101790002DE9F04707460D464FF0000A002028606B
:1017A0006860FEF715FD8246FF2F03D119480068D7
:1017B00090F83270184850F827402CB95046FEF780
:1017C0000BFD4320BDE8F087012C04D15046FEF705
:1017D00003FD4320F6E7207C00F0010020B95046CD
:1017E000FEF7FAFC4520EDE70026D4F80C90D4F87B
:1017F00008805046FEF7F0FC00E0761C58F8041B09
:101800000029FAD0B0002860A9EB060080006860CB
:101810000020D7E740000020E805002070B504460E
:1018200010464FF080750560051F28462C606FF04C
:101830000106051F28462E604FF01236051F284668
:101840002E604FF00336051F28462E604FF00236FB
:10185000051F28462E607610051F28462E60051F9E
:10186000284629604FF01136051F28462E604FF09C
:101870001036051F28462E604FF00936051F2846F2
:101880002E604FF00836051F28462E604FF00736B1
:10189000051F28462E604FF00636051F28462E608D
:1018A0004FF00536051F28462E604FF00436051F01
:1018B00028462E6070BD00002DE9F04105464FF02E
:1018C0000008FEF785FC8046FF2D05D12048006802
:1018D00090F83250012608E01D48006890F8320068
:1018E000A84201D1012600E000261A4850F8254000
:1018F0002CB94046FEF770FC4820BDE8F081012C71
:1019000004D14046FEF768FC4320F6E794F83470B3
:101910001148C05D94F8351088430F49C8550846F2
:10192000C05D30B994F836100C48007888430B49F4
:10193000087094F8300040F0080084F83000404609
:10194000FEF74AFC012E01D100F0C2FC0020D4E7D2
:1019500040000020E8050020320000203100002077
:101960007047000070B5054600261748007800B1A2
:1019700070BD1648007800B1FAE71DB3FEF728FCE9
:1019800006461348006890F834401248005D10493C
:10199000096891F8351088430E4908550846005DDE
:1019A00040B90B48006890F836100B48007888431F
:1019B0000949087006480068C5623046FEF70CFC0D
:1019C00000F086FC00BFD3E72D0000202E00002091
:1019D0004000002032000020310000202DE9F041BD
:1019E00005460E4617461C461248007810B1552091
:1019F000BDE8F0811048007808B13220F8E74FF4D4
:101A00007A7060434FF47A71B0FBF1F14FF461608A
:101A10006843C6EB061200EB8200384400EB40023C
:101A2000C2EBC01001EBC0084046FFF79BFF00204F
:101A3000DEE700002D0000202E00002070B50026FB
:101A400000F072F8FEF7C4FB064631480068401CFF
:101A50002F4908603046FEF7BFFB2E48007801286A
:101A600053D12D48007820B1012804D0022809D193
:101A700003E001250BE0002509E0012501202649AE
:101A8000087004E0012500202349087000BF00BF52
:101A900005B970BD2148046833E0FEF799FB06469E
:101AA000E06A50B3E06A401EE062E06A28BB94F846
:101AB000300000F0370040B114F8300F00F0C800DB
:101AC000207001206070303C02E0002084F831007A
:101AD00094F8300000F0080078B93434A078104948
:101AE000097808430E49087020780E49085C61782F
:101AF000084314F834190B4A505464693046FEF711
:101B00006BFB94F832003F28C7D100BFC1E700004B
:101B1000580000203A000020500000204C00002017
:101B2000310000203200002010B507480088401C1A
:101B300005490880084600880A2803D30020088049
:101B400000F036F810BD0000740000202DE9F05FB1
:101B500006460F4690469946DDE90AAB0C9D1348B0
:101B6000007820B18B2028700020BDE8F09FFFF79F
:101B7000E9FB00F069F804462CB9FFF703FC862066
:101B800028700020F1E7012084F82500A661E761B4
:101B900084F82480C4F80490C4F808A0C4F820B0E5
:101BA000FFF7F0FB002028702046DEE72D00002024
:101BB00010B503480068FFF7B1FC0446204610BD8D
:101BC0006800002070B505460C462878642803D0CC
:101BD00089202070002070BD1A48007818B18B2031
:101BE00020700020F7E7FFF7ADFB95F82500E8B17E
:101BF000012810D002280FD003281DD1284600F05C
:101C00003DF90021284600F0C3F8FFF7BBFB002098
:101C100020700120DFE700BF0021284600F0B8F85F
:101C2000FFF7B0FB002020700120D4E7FFF7AAFBEC
:101C3000872020700020CEE7FFF7A4FB8D202070C6
:101C40000020C8E72D0000200C48006808B90020DB
:101C500070470A480168094AC86810600020C860D7
:101C6000086107480088401C054A10800548008824
:101C7000401E044A10800846EAE700006C0000207D
:101C80005E0000205C0000202DE9F0414FF420713F
:101C9000224800F0EBFA4021214800F0E7FA002545
:101CA00014E0681C86B205EB85001C4901EBC004FA
:101CB00006EB860001EBC00764202070002084F84A
:101CC0002500E76017A02062681C85B20F2DE8D3BD
:101CD00005EB8500114901EBC00464202070002051
:101CE00084F82500E0600FA0206200200E49086003
:101CF0000E49088010200E49088008480D490860E8
:101D00000120FFF76FFB0C4908600020FFF76AFB1A
:101D10000A49086000F014F8BDE8F081500B00207B
:101D2000D00F00203F000000600000205E00002077
:101D30005C0000206C00002064000020680000208F
:101D400000B587B00320002180220A4BCDE9013283
:101D5000CDE903104FF6FD700823074A00900748AD
:101D6000FFF77EFC06AA06A10820FFF7D7FC07B004
:101D700000BD0000D00D0020CC0F0020FD1D00088C
:101D800075432F4F532D494920546D7200000000B8
:101D900070B50B46032580F82550012B05D1154E53
:101DA000C5693668354445610CE085692DB9114E29
:101DB000C56936683544456104E00E4E856936686C
:101DC00035444561057D05F007040B4D05EBC40165
:101DD0000D682DB908600025C56001258D8006E0DD
:101DE0000A680860C26010618D886D1C8D800025B6
:101DF000056170BD60000020D00F002008B500BF55
:101E000000BF6A4600211A480068FFF711FBFFF780
:101E100099FA18480068401C16490860084600787E
:101E200000F00708144800EBC8073C681AE0E668B1
:101E3000104960690968884213D1204600F01EF8F5
:101E400094F82400022804D101212046FFF7A0FFC6
:101E500002E0022084F82500656815B12046A168DB
:101E6000A8473446002CE2D1FFF78CFAC9E70000FE
:101E70006800002060000020D00F002030B5057DF4
:101E800005F007040D4D05EBC4031D68854205D11F
:101E9000C168196039B100250D6104E00169C268AB
:101EA000CA6002B11161012580F825500025C56086
:101EB00005619D886D1E9D8030BD0000D00F002003
:101EC0002DE9F04F05460F4690469946A87A1949E4
:101ED0000E5C05F10B00805D11F800B00BEBC60045
:101EE00000F0FF0A144850F82A4000202034E06037
:101EF0002760207C20EA0800207484F81190207C60
:101F0000203C00F0080068B994F836000B490978C5
:101F100008430A4908700A48805D94F83510084360
:101F2000074988552946204600F00CF85046BDE880
:101F3000F08F0000F0350008E80500203100002097
:101F40003200002010B590F8342001F10B039B5CA7
:101F500090F83540A34301F10B04A35423469B5C46
:101F600023B98B7A90F83640A3438B7210BD0000E2
:101F700010B51B4A1268D061194A126892F83430C1
:101F800000F10B02D25C164B1B6893F835301A43F4
:101F9000134B1B6893F8344000F10B031A55827AF7
:101FA0000F4B1B6893F836301A4382720C4A126842
:101FB00092F834100B4A525C094B1B6893F8353089
:101FC0009A43084B5A541A46525C42B9044A126862
:101FD00092F83630044A12789A43034B1A7010BDB7
:101FE0004000002032000020310000200146002285
:101FF0008A72002005E0002301F10B021354421CF9
:10200000D0B20828F7D370472DE9F041502111488C
:1020100000F02CF900250DE0681C86B20D4800EB9D
:10202000051400EB06170020207067600AA0E0602E
:10203000681C85B2042DEFD3064800EB0514002080
:102040002070606004A0E060024804490860BDE8B8
:10205000F0810000980100203F0000001C000020DB
:1020600070B5C821114800F001F900230FE0581C99
:1020700085B203EB83000D4901EB800405EB85007D
:1020800001EB8006002020706660581C83B2092B8B
:10209000EDD303EB8300054901EB800400202070A1
:1020A000606008460249086070BD0000D000002052
:1020B0001800002000200A4908600A4908700A49EF
:1020C00008700A4908700A4908700A4908600A49F4
:1020D00008600A4908600A4908600A4908707047A0
:1020E000580000202D0000202E0000203B00002082
:1020F0003A000020140000203C00002028000020AE
:10210000240000202C00002000210A4A1170002029
:1021100004E00021084A1154411CC8B20828F8D331
:102120000021064A1170064A1170064A1160064ADB
:102130001160704731000020320000202F00002085
:1021400030000020480000204000002070B54FF40F
:102150007C71194800F08AF84FF48071174800F03C
:1021600085F8002413E0601CC5B2C4EBC40000EB8A
:102170004000114901EB8003C5EBC50000EB4000B6
:1021800001EB80065E610EA0D864601CC4B20B2C0B
:10219000E9D3C4EBC40000EB4000074901EB800326
:1021A0000020586106A0D864002006490860024853
:1021B0000549086070BD0000E8060020E805002021
:1021C0003F0000004C0000204400002000B587B014
:1021D0000320002180220A4BCDE90132CDE9031012
:1021E0004FF6FF703F23074A00900748FFF738FA81
:1021F00006AA06A13F20FFF791FA07B000BD000034
:10220000E8030020E4050020A524000875432F4FB3
:10221000532D49492049646C6500000000B587B022
:102220000320002180220A4BCDE90132CDE90310C1
:102230004FF6FE703E23074A00900748FFF710FA5A
:1022400006AA06A13E20FFF769FA07B000BD00000C
:10225000E8010020E4030020CD24000875432F4F3F
:10226000532D4949205374617400000004E000229A
:1022700000F8012B4A1E91B20029F8D170470000E6
:102280002DE9F04178211048FFF7F0FF00240DE020
:10229000601C86B204EB44000B4901EBC00506EB61
:1022A000460001EBC0072F60601C84B2042CEFD302
:1022B00004EB4400044901EBC005002028600846F7
:1022C00002490860BDE8F081D80A002054000020CF
:1022D00010B50024FDF77CFF044613480078F8B9D8
:1022E00012480078E0B900F02DF81148114909783A
:1022F00050F82100104908600E4800780F4909780D
:1023000088420DD00C480068806B401C0A4909685F
:1023100088630B480068401C09490860FDF770FF9E
:102320002046FDF759FF10BD2D0000202E00002093
:10233000E805002030000020480000202F00002089
:10234000140000200649074A1278885C0649095C97
:10235000034A515C01EBC001044A11707047000050
:10236000F03500083100002032000020300000204D
:102370002DE9F84F05460F4690469946DDE90AAB30
:1023800000200090FDF724FF00903F480468002CD7
:1023900074D0183454F8040C3B4908600098FDF7D9
:1023A0001BFF44F8187CA5760020207660766061DB
:1023B00044F814BC44F80CAC44F8108C0C9824F885
:1023C000080C24F8069C0020E077E810207705F040
:1023D0000700E076217F01208840A077E17E012080
:1023E0008840607700206060E060A0602062A062AA
:1023F0006062E062206325A06063183C002606E06E
:10240000002104F1500040F82610701CC6B2002EC6
:10241000F6D02046FFF7D2F82046FFF77DF9FDF70A
:10242000D7FE00901A4840F825401A4800686061BD
:102430000020A0611748006810B116480068846148
:10244000144804603434A0781349097808431249C9
:10245000087020781149085C6178084314F8341931
:102460000E4A50540E480078401C0D4908700098E0
:10247000FDF7B2FE0020BDE8F88FFFE70098FDF7FA
:10248000ABFE4220F7E70000440000203F000000C0
:10249000E80500204C000020310000203200002020
:1024A0003B000020002400BF00BFFDF791FE044662
:1024B00005480068401C044908602046FDF78CFE72
:1024C000FFF72BF9F1E700003C000020002400BFDB
:1024D00002E0C820FFF746FA194800780028F8D033
:1024E000184800686421B0FBF1F0164908600846FE
:1024F000006828B9002014490870FF20FFF7DCF9B4
:1025000000BFFDF765FE04461048006810490860EA
:1025100000200E4908602046FDF75EFE0C4800686A
:1025200008490968B0FBF1F0C0F164000649087081
:10253000FFF72CF900F00EF86420FFF713FAE0E73C
:102540002C00002024000020200000203C0000205F
:10255000280000207CB5002514E069462846FFF7D6
:1025600017F9064666B9094850F8254044B1012CD0
:1025700006D0D4E9020100EB810060640198A064F8
:10258000681CC5B23F2DE8D97CBD0000E8050020DD
:1025900002F0010343B102F002032BB102E0491E35
:1025A000002308C00029FAD17047000029B1064A6B
:1025B00052690243044B5A6104E0034A5269824360
:1025C000014B5A61704700000010024029B1064AD1
:1025D000D2690243044BDA6104E0034AD2698243C0
:1025E000014BDA61704700000010024029B1064A31
:1025F00012690243044B1A6104E0034A12698243E0
:10260000014B1A61704700000010024029B1064AD0
:1026100092690243044B9A6104E0034A926982433F
:10262000014B9A61704700000010024029B1064A30
:10263000D2680243044BDA6004E0034AD268824362
:10264000014BDA60704700000010024030B50021F5
:102650000022002400232D4D6D6805F00C0121B1EE
:10266000042905D0082923D105E0294D056022E081
:10267000274D05601FE0254D6D6805F47012234D50
:102680006D6805F48034022505EB92421CB9214D9A
:10269000554305600BE01D4D6D6805F400351DB117
:1026A0001C4D5543056002E0194D5543056002E09D
:1026B000174D056000BF00BF144D6D6805F0F001B7
:1026C0000909154D6B5C0568DD4045600F4D6D686F
:1026D00005F4E061090A104D6B5C4568DD408560DA
:1026E0000A4D6D6805F46051C90A0B4D6B5C456875
:1026F000DD40C560054D6D6805F44041890B074D0F
:102700006B5CC568B5FBF3F5056130BD0010024098
:1027100000127A0000093D00880000209800002087
:10272000704710B500F002F810BD00000CB5002095
:10273000019000903348006840F4803031490860CF
:1027400000BF3048006800F4003000900198401C41
:102750000190009818B90198B0F5A06FF1D12948FF
:10276000006800F4003010B10120009001E000206A
:1027700000900098012843D12348006840F01000E1
:10278000214908600846006820F0030008600846F8
:10279000006840F0020008601A4840681949486023
:1027A0000846406848600846406840F480604860D9
:1027B0000846406820F47C1048600846406840F4B1
:1027C000E81048600846006840F08070086000BF6C
:1027D0000C48006800F000700028F9D009484068F3
:1027E00020F00300074948600846406840F00200B6
:1027F000486000BF0348406800F00C000828F9D189
:102800000CBD00000010024000200240042808D146
:102810004FF0E021096941F004014FF0E02211611D
:1028200007E04FF0E021096921F004014FF0E022B8
:102830001161704710B505480078012805D1FEF7F1
:1028400027FDFFF7FBF8FEF735FD10BD3A0000202D
:1028500010B51348006840F00100114908600846AF
:102860004068104908400E494860084600680E4913
:1028700008400B4908600846006820F48020086082
:102880000846406820F4FE0048604FF41F0088604E
:10289000FFF747FF4FF000600449086010BD0000DB
:1028A000001002400000FFF8FFFFF6FE08ED00E018
:1028B00010B50121084800F062F860B107480088AF
:1028C00040F40040054908800121034800F048F821
:1028D000002000F031F810BD000800407600002014
:1028E0007FB505460C4601210420FFF76FFEADF8C9
:1028F0000450ADF800400020ADF80600ADF802002D
:1029000069460C4800F058F801221146094800F0C9
:1029100047F81E208DF80C0001208DF80D000220D4
:102920008DF80E0001208DF80F0003A8FEF744FC7F
:102930007FBD00000008004010B5044644B10021EE
:10294000064800F036F80121044800F00CF803E0D6
:102950000021024800F007F810BD00000008004008
:10296000CA430282704721B1028842F0010202800C
:1029700004E002884FF6FE731A400280704730B5BB
:102980000246002000230024158A05EA01039589E8
:1029900005EA010413B10CB1012000E0002030BDB4
:1029A0001AB183890B43838102E083898B4383813E
:1029B0007047818470470000002202881D4B9842B6
:1029C0000ED01D4B98420BD0B0F1804F08D01B4B5E
:1029D000984205D01A4B984202D01A4B984204D123
:1029E0004FF68F731A404B881A43174B984207D003
:1029F000164B984204D04FF6FF431A40CB881A4337
:102A000002808B8883850B8803850A4B98420BD004
:102A1000094B984208D00E4B984205D00D4B984276
:102A200002D00D4B984201D10B7A03860123838299
:102A300070470000002C01400034014000040040B9
:102A400000080040000C004000100040001400404E
:102A500000400140004401400048014070B58CB086
:102A600006460C46154601210846FFF79FFD3046F5
:102A7000FEF708FA019402951020039000200490BC
:102A800005908020069000200790089009904FF450
:102A900080500A9000200B9001A93046FEF798FA6A
:102AA0000CB070BD10B5FEF7F3FB40F225511E4887
:102AB00000F046F910B31C4800F0FEF9C4B21B4800
:102AC000008800F40040C8B91848008800F480402D
:102AD00060B10A2C03D000201449088020E013487C
:102AE000008840F400401149088019E00D2C06D1FF
:102AF0000E48008840F480400C49088010E00B48E4
:102B00000088C0F30D000A490C5408480088401C96
:102B10000649088008460088C72801DD0020088093
:102B2000FEF7C8FB10BD0000003801408000002007
:102B3000A011002010B540F22551134800F000F913
:102B400000B3114800F0B8F9C4B210480088C82892
:102B500012DA00210E48FFF72CFF0C48008810B94C
:102B60000120FFF7E9FE094801880088401C074A58
:102B700010800848445405E00448008840F40040B0
:102B80000249088010BD000000440040760000208B
:102B900000080040D810002010B586B0044601217E
:102BA0000420FFF733FD01214804FFF70FFD2D48F6
:102BB00000F078F80420ADF8100003208DF8120022
:102BC00018208DF8130004A92748FEF720FA0820E2
:102BD000ADF8100004208DF8130004A92248FEF778
:102BE00016FA00940020ADF80400ADF80600ADF828
:102BF0000800ADF80C000C20ADF80A006946194831
:102C000000F0EEF801228021164800F041F8174A42
:102C10001449091D1648FFF721FF0121114800F052
:102C20002BF8012240F225510E4800F0B3F826207F
:102C30008DF8140002208DF8150003208DF8160081
:102C400001208DF8170005A8FEF7B6FA41F61F41DE
:102C50006320FFF745FE002006490880FFF76CFE61
:102C600006B010BD004400400008014010100020D4
:102C7000800002407600002021B1828942F4005297
:102C8000828104E082894DF6FF731A408281704789
:102C90001AB1838A0B43838202E0838A8B43838247
:102CA0007047000010B504462048844209D1012134
:102CB0008803FFF7BBFC00214FF48040FFF7B6FC10
:102CC00032E01B48844209D101214804FFF78EFC01
:102CD00000214FF40030FFF789FC25E015488442BD
:102CE00009D101218804FFF781FC00214FF48020E5
:102CF000FFF77CFC18E01048844209D10121C80488
:102D0000FFF774FC00214FF40020FFF76FFC0BE08D
:102D10000A48844208D101210805FFF767FC002119
:102D20004FF48010FFF762FC10BD00000038014036
:102D30000044004000480040004C0040005000406B
:102D400070B50246002400230025002040F66A16D4
:102D5000B14200D100BFC1F3421501F01F030126AB
:102D600006FA03F3012D02D19689334006E0022DC5
:102D700002D1168A334001E0968A33400C120126B4
:102D800006FA04F41688344013B10CB1012000E0B7
:102D9000002070BDF0B50346002400260025002069
:102DA00040F66A17B94200D100BF1846C1F3421479
:102DB00001F01F06012707FA06F5012C01D10C309E
:102DC00004E0022C01D1103000E014301AB1076881
:102DD0002F43076002E00768AF430760F0BD0000C3
:102DE0002DE9F04786B005460E460024A24600BFF6
:102DF000A1460027B08900B100BF2F462C8A4CF6AF
:102E0000FF700440F08804432C82AC894EF6F31026
:102E10000440B08831890843718908430443AC8178
:102E2000AC8A4FF6FF400440B0890443AC8201A84D
:102E3000FFF70CFC1F48874202D1DDF810A001E02B
:102E4000DDF80CA0A88900F4004040B10AEBCA00EC
:102E500000EB0A1031684900B0FBF1F807E00AEB1B
:102E6000CA0000EB0A1031688900B0FBF1F8642059
:102E7000B8FBF0F004012009642101FB1089A88946
:102E800000F4004040B1322000EBC900B0FBF1F08B
:102E900000F00700044308E0322000EB0910642131
:102EA000B0FBF1F000F00F0004432C8106B0BDE848
:102EB000F08700000038014001468888C0F3080010
:102EC0007047000010B586B00024FDF781F9044674
:102ED000142101A8FDF7B3FB01AA00210548FDF765
:102EE000B5FE01A800F00CFA2046FDF775F906B012
:102EF00010BD00000064004000BFFEE730380A2823
:102F000001D20120704700207047014600BF704782
:102F10000246044B188800F47F40535C1843014B71
:102F200018807047B800002008B5012019490870C2
:102F300019A0FDF7A9F92CE06A464FF4FA611C4884
:102F40000068FEF775FA9DF8000020B10A2817D036
:102F50000E281CD113E000200E490870012000F05B
:102F60006FFA07211348FFF7D3FF012000F05CFA46
:102F7000012000F05FFA01200649087008E007E030
:102F8000002000F057FA002000F05AFA00E000BFDD
:102F900000BFD1E7CC00002063616E5F7361655FA5
:102FA0007461736B20696E6974200D0A0000000063
:102FB000C80000207317002010B504460823054AF6
:102FC0000421054800F02AF8214604A0FDF75CF929
:102FD00010BD0000A8000020006CFE0C63616E2094
:102FE0007478207370656564203D203078257820E2
:102FF000200D0A0010B50020FEF7F4F9044908601E
:103000000723044A00210448FEF7DAFA10BD000045
:10301000C800002064170020292F0008F0B585B0F3
:1030200004460E4617461D4600940194F0B28DF8F2
:10303000080000208DF809008DF80A502A4639460C
:103040000DF10B00FDF762FA69460248FDF786FEB6
:1030500005B0F0BD0064004010B5034605E013F86C
:10306000010B5040C0B2044C225C0800A1F10101E8
:10307000F5D1104610BD000068120020F0B50446DE
:103080000D4617460026601932463946FFF7E4FF21
:1030900006463046F0BD70B50C460123002505708C
:1030A000802113E003F001050DB1254600E0002565
:1030B00085EA6303002206E0855C5D408E18855535
:1030C000022505FB0122FF2AF6DD49100029E9D17E
:1030D00070BDF0B50C4680258023002606700121C6
:1030E00012E003F080060EB1264600E0002686EAD4
:1030F0004306F3B2002204E0865C5E408F18C6559A
:10310000521C8A42F8DB4900FF29EADDF0BD0000CD
:1031100070B504460D464FF480710A48FDF76DFA0C
:10312000012C04D1E9B20748FFF7D3FF05E0022CD8
:1031300003D1E9B20348FFF7AEFF0120024908605E
:1031400070BD0000681200208400002010B56FF0F0
:103150000400FFF75BFB104800681049B0FBF1F07A
:103160000F4908700C4800680C49B0FBF1F44FF4AB
:103170007A70444301200B4908804FF0E020006939
:1031800040F002004FF0E021086108464461006908
:1031900040F00100086110BD0000002000127A001C
:1031A000780000207A00002070B504460F480078AF
:1031B000A0B10F48007888B90E480088844206DB29
:1031C0000C48008894FBF0F5284600F01DF80948EB
:1031D000008894FBF0F100FB114084B24FF47A7147
:1031E00004FB01F000F016F870BD00003A0000206A
:1031F0002D0000207A00002010B5FEF7A3F810BDC6
:1032000010B5FEF7BFF810BD10B504462046FEF716
:10321000A9FB10BD2DE9F047074600264FF0E0203E
:10322000D0F814901148007807FB00F800BFFFF7B2
:10323000E3FF4FF0E020856911E04FF0E020846962
:10324000AC420CD0AC4202D2281B064403E0A9EBEE
:103250000400284406442546464500D300E0ECE738
:1032600000BFFFF7CDFFBDE8F08700007800002029
:1032700000BF054A128802F04002002AF9D0C2B20B
:10328000014B1B1D1A80704700380140014800881F
:1032900070470000B800002010B5FFF757FF00F09E
:1032A00011F94FF4A060FDF7BFFFFDF73FFF4FF4AA
:1032B000E13000F023F94D210220FFF729FFFDF74F
:1032C000C9FBFDF7AEFC1820FDF7EAFB0121094818
:1032D000FDF7B6FA4FF4E130FFF75EFCFDF7B8FFFB
:1032E0000A23054A00210548FEF76AF9FEF742F96C
:1032F000002010BD9C0000206414002069340008E8
:1033000010B504460748007800B910BD14222146C4
:103310000548FDF740F905480068FEF7FFF800BFD3
:10332000F3E70000CC00002068170020C800002050
:103330001FB5002400BF01261427642503A83149C6
:103340000022314BCDE900210290022205210846DE
:10335000FEF7FCFB2D49086003A92C480068FEF726
:1033600031FC4DE02A48007828B12A480088C0B2D4
:103370002849088005E02748008840F47F40254917
:103380000880254890F90000002802DD32276425D6
:103390000FE0214890F90000002805DA3225284680
:1033A00005EBD0714F1004E01B48007808B90A27DC
:1033B0006425BC4201DA012604E0AC4201DB0024B2
:1033C00000E0002656B1002014490860012014498D
:1033D000C1F8880100201349086009E001200F4965
:1033E000086000200E49C1F8880101200D490860DD
:1033F0000A23002211461046FEF7F0FA601C84B240
:10340000B0E70000C00000204D340008BC000020E0
:10341000C6000020B8000020C4000020A001214206
:1034200000802242B4012242014908707047000026
:10343000C50000200149087070470000C600002048
:103440000149087070470000C400002070B50546AF
:103450000E46FFF71BFF0446204600F09FF820466B
:10346000FFF7AAFD70BD000070B50446002500BF3F
:103470004FF47A70FFF798FE4FF47A70FFF794FEDE
:10348000FCF7A6FE054609A0FCF7FEFEFFF7B2FD1D
:1034900009230A4A00210A48FEF792F80A20FEF79B
:1034A0000BFA2846FCF798FE70BD00007374617239
:1034B000745F7461736B0D0A0000000064150020D6
:1034C0003133000808B501210820FFF79FF84FF4B9
:1034D0008050ADF8000010208DF8030003208DF817
:1034E000020069460348FDF792FD0020024908608A
:1034F00008BD0000000C0140B081214210B586B02B
:103500000446012144F20400FFF780F84FF40070F4
:10351000ADF8140003208DF8160018208DF8170060
:1035200005A91C48FDF773FD4FF48060ADF8140049
:1035300004208DF8170005A91648FDF768FD252021
:103540008DF8000003208DF801008DF802000120A5
:103550008DF803006846FDF72FFE01940020ADF8BA
:103560000800ADF80A00ADF80C00ADF810000C2012
:10357000ADF80E0001A90848FFF732FC012240F225
:1035800025510548FFF706FC01210348FFF774FBAE
:1035900006B010BD000801400038014070B5044677
:1035A000002555201049087004204870200A8870B2
:1035B000CC70032201210C48FFF760FD0A49087115
:1035C00000BF0DE00848405D0849088000BF07487B
:1035D000001F008800F040000028F8D0681CC5B229
:1035E000052DEFDB70BD0000A80000200444004062
:1035F00000000100020001000300010002000100C0
:1036000004000100020001000300010002000100AB
:10361000050001000200010003000100020001009A
:10362000040001000200010003000100020001008B
:103630000600010002000100030001000200010079
:10364000040001000200010003000100020001006B
:10365000050001000200010003000100020001005A
:10366000040001000200010003000100020001004B
:103670000700010002000100030001000200010038
:10368000040001000200010003000100020001002B
:10369000050001000200010003000100020001001A
:1036A000040001000200010003000100020001000B
:1036B00006000100020001000300010002000100F9
:1036C00004000100020001000300010002000100EB
:1036D00005000100020001000300010002000100DA
:1036E00004000100020001000300010002000100CB
:1036F0003031323334353637383941424344454628
:103700004030580030313233343536373839616221
:103710006364656640307800040000080000000023
:103720000000000200010000100000004C370008FB
:1037300000000020D0000000280100081C3800080C
:10374000D0000020101D00004401000800A24A041F
:103750000000000000000000010203040607080941
:103760000000000000000000000000000000000059
:103770000000000000000000000000000000000049
:103780000000000000000000000000000000000039
:103790000000000000000000000000000000000029
:1037A0000000000000000000000000000000000019
:1037B0000000000000000000000000000000000009
:1037C00000000000000000000000000000000000F9
:1037D00000000000000000000102030401020304D5
:1037E0000607080902040608006CFE0C00FFFF0033
:1037F0001D00000055300608550C092102010D007E
:10380000000000000000000000000000746D720065
:0C381000000001000000000001000000AA
:04000005080000ED02
:00000001FF
